{
	"data": {
		"bytecode": {
			"linkReferences": {},
			"object": "608060405234801561000f575f80fd5b506040516106ad3803806106ad83398181016040528101906100319190610150565b825f806101000a81548173ffffffffffffffffffffffffffffffffffffffff021916908373ffffffffffffffffffffffffffffffffffffffff1602179055508160015f6101000a81548173ffffffffffffffffffffffffffffffffffffffff021916908373ffffffffffffffffffffffffffffffffffffffff160217905550806002819055505050506101a0565b5f80fd5b5f73ffffffffffffffffffffffffffffffffffffffff82169050919050565b5f6100ec826100c3565b9050919050565b6100fc816100e2565b8114610106575f80fd5b50565b5f81519050610117816100f3565b92915050565b5f819050919050565b61012f8161011d565b8114610139575f80fd5b50565b5f8151905061014a81610126565b92915050565b5f805f60608486031215610167576101666100bf565b5b5f61017486828701610109565b935050602061018586828701610109565b92505060406101968682870161013c565b9150509250925092565b610500806101ad5f395ff3fe608060405234801561000f575f80fd5b5060043610610029575f3560e01c8063301d42721461002d575b5f80fd5b61004760048036038101906100429190610289565b610049565b005b5f811161008b576040517f08c379a000000000000000000000000000000000000000000000000000000000815260040161008290610334565b60405180910390fd5b5f8054906101000a900473ffffffffffffffffffffffffffffffffffffffff1673ffffffffffffffffffffffffffffffffffffffff166323b872dd3330600254856100d6919061037f565b6040518463ffffffff1660e01b81526004016100f49392919061040e565b6020604051808303815f875af1158015610110573d5f803e3d5ffd5b505050506040513d601f19601f820116820180604052508101906101349190610478565b5060015f9054906101000a900473ffffffffffffffffffffffffffffffffffffffff1673ffffffffffffffffffffffffffffffffffffffff1663a9059cbb33836040518363ffffffff1660e01b81526004016101919291906104a3565b6020604051808303815f875af11580156101ad573d5f803e3d5ffd5b505050506040513d601f19601f820116820180604052508101906101d19190610478565b507f54445d9be7f7ec3692e5471a5c037b41185bd6ccfa8c29053e1e180ac459bd445f8054906101000a900473ffffffffffffffffffffffffffffffffffffffff1660015f9054906101000a900473ffffffffffffffffffffffffffffffffffffffff166002546040516102479392919061040e565b60405180910390a150565b5f80fd5b5f819050919050565b61026881610256565b8114610272575f80fd5b50565b5f813590506102838161025f565b92915050565b5f6020828403121561029e5761029d610252565b5b5f6102ab84828501610275565b91505092915050565b5f82825260208201905092915050565b7f416d6f756e742073686f756c642062652067726561746572207468616e207a655f8201527f726f000000000000000000000000000000000000000000000000000000000000602082015250565b5f61031e6022836102b4565b9150610329826102c4565b604082019050919050565b5f6020820190508181035f83015261034b81610312565b9050919050565b7f4e487b71000000000000000000000000000000000000000000000000000000005f52601160045260245ffd5b5f61038982610256565b915061039483610256565b92508282026103a281610256565b915082820484148315176103b9576103b8610352565b5b5092915050565b5f73ffffffffffffffffffffffffffffffffffffffff82169050919050565b5f6103e9826103c0565b9050919050565b6103f9816103df565b82525050565b61040881610256565b82525050565b5f6060820190506104215f8301866103f0565b61042e60208301856103f0565b61043b60408301846103ff565b949350505050565b5f8115159050919050565b61045781610443565b8114610461575f80fd5b50565b5f815190506104728161044e565b92915050565b5f6020828403121561048d5761048c610252565b5b5f61049a84828501610464565b91505092915050565b5f6040820190506104b65f8301856103f0565b6104c360208301846103ff565b939250505056fea26469706673582212201c79428d8013df0c7e4cefb3428ead43dd940ec7299d2641e0af5200f03c43ad64736f6c634300081a0033",
			"opcodes": "PUSH1 0x80 PUSH1 0x40 MSTORE CALLVALUE DUP1 ISZERO PUSH2 0xF JUMPI PUSH0 DUP1 REVERT JUMPDEST POP PUSH1 0x40 MLOAD PUSH2 0x6AD CODESIZE SUB DUP1 PUSH2 0x6AD DUP4 CODECOPY DUP2 DUP2 ADD PUSH1 0x40 MSTORE DUP2 ADD SWAP1 PUSH2 0x31 SWAP2 SWAP1 PUSH2 0x150 JUMP JUMPDEST DUP3 PUSH0 DUP1 PUSH2 0x100 EXP DUP2 SLOAD DUP2 PUSH20 0xFFFFFFFFFFFFFFFFFFFFFFFFFFFFFFFFFFFFFFFF MUL NOT AND SWAP1 DUP4 PUSH20 0xFFFFFFFFFFFFFFFFFFFFFFFFFFFFFFFFFFFFFFFF AND MUL OR SWAP1 SSTORE POP DUP2 PUSH1 0x1 PUSH0 PUSH2 0x100 EXP DUP2 SLOAD DUP2 PUSH20 0xFFFFFFFFFFFFFFFFFFFFFFFFFFFFFFFFFFFFFFFF MUL NOT AND SWAP1 DUP4 PUSH20 0xFFFFFFFFFFFFFFFFFFFFFFFFFFFFFFFFFFFFFFFF AND MUL OR SWAP1 SSTORE POP DUP1 PUSH1 0x2 DUP2 SWAP1 SSTORE POP POP POP POP PUSH2 0x1A0 JUMP JUMPDEST PUSH0 DUP1 REVERT JUMPDEST PUSH0 PUSH20 0xFFFFFFFFFFFFFFFFFFFFFFFFFFFFFFFFFFFFFFFF DUP3 AND SWAP1 POP SWAP2 SWAP1 POP JUMP JUMPDEST PUSH0 PUSH2 0xEC DUP3 PUSH2 0xC3 JUMP JUMPDEST SWAP1 POP SWAP2 SWAP1 POP JUMP JUMPDEST PUSH2 0xFC DUP2 PUSH2 0xE2 JUMP JUMPDEST DUP2 EQ PUSH2 0x106 JUMPI PUSH0 DUP1 REVERT JUMPDEST POP JUMP JUMPDEST PUSH0 DUP2 MLOAD SWAP1 POP PUSH2 0x117 DUP2 PUSH2 0xF3 JUMP JUMPDEST SWAP3 SWAP2 POP POP JUMP JUMPDEST PUSH0 DUP2 SWAP1 POP SWAP2 SWAP1 POP JUMP JUMPDEST PUSH2 0x12F DUP2 PUSH2 0x11D JUMP JUMPDEST DUP2 EQ PUSH2 0x139 JUMPI PUSH0 DUP1 REVERT JUMPDEST POP JUMP JUMPDEST PUSH0 DUP2 MLOAD SWAP1 POP PUSH2 0x14A DUP2 PUSH2 0x126 JUMP JUMPDEST SWAP3 SWAP2 POP POP JUMP JUMPDEST PUSH0 DUP1 PUSH0 PUSH1 0x60 DUP5 DUP7 SUB SLT ISZERO PUSH2 0x167 JUMPI PUSH2 0x166 PUSH2 0xBF JUMP JUMPDEST JUMPDEST PUSH0 PUSH2 0x174 DUP7 DUP3 DUP8 ADD PUSH2 0x109 JUMP JUMPDEST SWAP4 POP POP PUSH1 0x20 PUSH2 0x185 DUP7 DUP3 DUP8 ADD PUSH2 0x109 JUMP JUMPDEST SWAP3 POP POP PUSH1 0x40 PUSH2 0x196 DUP7 DUP3 DUP8 ADD PUSH2 0x13C JUMP JUMPDEST SWAP2 POP POP SWAP3 POP SWAP3 POP SWAP3 JUMP JUMPDEST PUSH2 0x500 DUP1 PUSH2 0x1AD PUSH0 CODECOPY PUSH0 RETURN INVALID PUSH1 0x80 PUSH1 0x40 MSTORE CALLVALUE DUP1 ISZERO PUSH2 0xF JUMPI PUSH0 DUP1 REVERT JUMPDEST POP PUSH1 0x4 CALLDATASIZE LT PUSH2 0x29 JUMPI PUSH0 CALLDATALOAD PUSH1 0xE0 SHR DUP1 PUSH4 0x301D4272 EQ PUSH2 0x2D JUMPI JUMPDEST PUSH0 DUP1 REVERT JUMPDEST PUSH2 0x47 PUSH1 0x4 DUP1 CALLDATASIZE SUB DUP2 ADD SWAP1 PUSH2 0x42 SWAP2 SWAP1 PUSH2 0x289 JUMP JUMPDEST PUSH2 0x49 JUMP JUMPDEST STOP JUMPDEST PUSH0 DUP2 GT PUSH2 0x8B JUMPI PUSH1 0x40 MLOAD PUSH32 0x8C379A000000000000000000000000000000000000000000000000000000000 DUP2 MSTORE PUSH1 0x4 ADD PUSH2 0x82 SWAP1 PUSH2 0x334 JUMP JUMPDEST PUSH1 0x40 MLOAD DUP1 SWAP2 SUB SWAP1 REVERT JUMPDEST PUSH0 DUP1 SLOAD SWAP1 PUSH2 0x100 EXP SWAP1 DIV PUSH20 0xFFFFFFFFFFFFFFFFFFFFFFFFFFFFFFFFFFFFFFFF AND PUSH20 0xFFFFFFFFFFFFFFFFFFFFFFFFFFFFFFFFFFFFFFFF AND PUSH4 0x23B872DD CALLER ADDRESS PUSH1 0x2 SLOAD DUP6 PUSH2 0xD6 SWAP2 SWAP1 PUSH2 0x37F JUMP JUMPDEST PUSH1 0x40 MLOAD DUP5 PUSH4 0xFFFFFFFF AND PUSH1 0xE0 SHL DUP2 MSTORE PUSH1 0x4 ADD PUSH2 0xF4 SWAP4 SWAP3 SWAP2 SWAP1 PUSH2 0x40E JUMP JUMPDEST PUSH1 0x20 PUSH1 0x40 MLOAD DUP1 DUP4 SUB DUP2 PUSH0 DUP8 GAS CALL ISZERO DUP1 ISZERO PUSH2 0x110 JUMPI RETURNDATASIZE PUSH0 DUP1 RETURNDATACOPY RETURNDATASIZE PUSH0 REVERT JUMPDEST POP POP POP POP PUSH1 0x40 MLOAD RETURNDATASIZE PUSH1 0x1F NOT PUSH1 0x1F DUP3 ADD AND DUP3 ADD DUP1 PUSH1 0x40 MSTORE POP DUP2 ADD SWAP1 PUSH2 0x134 SWAP2 SWAP1 PUSH2 0x478 JUMP JUMPDEST POP PUSH1 0x1 PUSH0 SWAP1 SLOAD SWAP1 PUSH2 0x100 EXP SWAP1 DIV PUSH20 0xFFFFFFFFFFFFFFFFFFFFFFFFFFFFFFFFFFFFFFFF AND PUSH20 0xFFFFFFFFFFFFFFFFFFFFFFFFFFFFFFFFFFFFFFFF AND PUSH4 0xA9059CBB CALLER DUP4 PUSH1 0x40 MLOAD DUP4 PUSH4 0xFFFFFFFF AND PUSH1 0xE0 SHL DUP2 MSTORE PUSH1 0x4 ADD PUSH2 0x191 SWAP3 SWAP2 SWAP1 PUSH2 0x4A3 JUMP JUMPDEST PUSH1 0x20 PUSH1 0x40 MLOAD DUP1 DUP4 SUB DUP2 PUSH0 DUP8 GAS CALL ISZERO DUP1 ISZERO PUSH2 0x1AD JUMPI RETURNDATASIZE PUSH0 DUP1 RETURNDATACOPY RETURNDATASIZE PUSH0 REVERT JUMPDEST POP POP POP POP PUSH1 0x40 MLOAD RETURNDATASIZE PUSH1 0x1F NOT PUSH1 0x1F DUP3 ADD AND DUP3 ADD DUP1 PUSH1 0x40 MSTORE POP DUP2 ADD SWAP1 PUSH2 0x1D1 SWAP2 SWAP1 PUSH2 0x478 JUMP JUMPDEST POP PUSH32 0x54445D9BE7F7EC3692E5471A5C037B41185BD6CCFA8C29053E1E180AC459BD44 PUSH0 DUP1 SLOAD SWAP1 PUSH2 0x100 EXP SWAP1 DIV PUSH20 0xFFFFFFFFFFFFFFFFFFFFFFFFFFFFFFFFFFFFFFFF AND PUSH1 0x1 PUSH0 SWAP1 SLOAD SWAP1 PUSH2 0x100 EXP SWAP1 DIV PUSH20 0xFFFFFFFFFFFFFFFFFFFFFFFFFFFFFFFFFFFFFFFF AND PUSH1 0x2 SLOAD PUSH1 0x40 MLOAD PUSH2 0x247 SWAP4 SWAP3 SWAP2 SWAP1 PUSH2 0x40E JUMP JUMPDEST PUSH1 0x40 MLOAD DUP1 SWAP2 SUB SWAP1 LOG1 POP JUMP JUMPDEST PUSH0 DUP1 REVERT JUMPDEST PUSH0 DUP2 SWAP1 POP SWAP2 SWAP1 POP JUMP JUMPDEST PUSH2 0x268 DUP2 PUSH2 0x256 JUMP JUMPDEST DUP2 EQ PUSH2 0x272 JUMPI PUSH0 DUP1 REVERT JUMPDEST POP JUMP JUMPDEST PUSH0 DUP2 CALLDATALOAD SWAP1 POP PUSH2 0x283 DUP2 PUSH2 0x25F JUMP JUMPDEST SWAP3 SWAP2 POP POP JUMP JUMPDEST PUSH0 PUSH1 0x20 DUP3 DUP5 SUB SLT ISZERO PUSH2 0x29E JUMPI PUSH2 0x29D PUSH2 0x252 JUMP JUMPDEST JUMPDEST PUSH0 PUSH2 0x2AB DUP5 DUP3 DUP6 ADD PUSH2 0x275 JUMP JUMPDEST SWAP2 POP POP SWAP3 SWAP2 POP POP JUMP JUMPDEST PUSH0 DUP3 DUP3 MSTORE PUSH1 0x20 DUP3 ADD SWAP1 POP SWAP3 SWAP2 POP POP JUMP JUMPDEST PUSH32 0x416D6F756E742073686F756C642062652067726561746572207468616E207A65 PUSH0 DUP3 ADD MSTORE PUSH32 0x726F000000000000000000000000000000000000000000000000000000000000 PUSH1 0x20 DUP3 ADD MSTORE POP JUMP JUMPDEST PUSH0 PUSH2 0x31E PUSH1 0x22 DUP4 PUSH2 0x2B4 JUMP JUMPDEST SWAP2 POP PUSH2 0x329 DUP3 PUSH2 0x2C4 JUMP JUMPDEST PUSH1 0x40 DUP3 ADD SWAP1 POP SWAP2 SWAP1 POP JUMP JUMPDEST PUSH0 PUSH1 0x20 DUP3 ADD SWAP1 POP DUP2 DUP2 SUB PUSH0 DUP4 ADD MSTORE PUSH2 0x34B DUP2 PUSH2 0x312 JUMP JUMPDEST SWAP1 POP SWAP2 SWAP1 POP JUMP JUMPDEST PUSH32 0x4E487B7100000000000000000000000000000000000000000000000000000000 PUSH0 MSTORE PUSH1 0x11 PUSH1 0x4 MSTORE PUSH1 0x24 PUSH0 REVERT JUMPDEST PUSH0 PUSH2 0x389 DUP3 PUSH2 0x256 JUMP JUMPDEST SWAP2 POP PUSH2 0x394 DUP4 PUSH2 0x256 JUMP JUMPDEST SWAP3 POP DUP3 DUP3 MUL PUSH2 0x3A2 DUP2 PUSH2 0x256 JUMP JUMPDEST SWAP2 POP DUP3 DUP3 DIV DUP5 EQ DUP4 ISZERO OR PUSH2 0x3B9 JUMPI PUSH2 0x3B8 PUSH2 0x352 JUMP JUMPDEST JUMPDEST POP SWAP3 SWAP2 POP POP JUMP JUMPDEST PUSH0 PUSH20 0xFFFFFFFFFFFFFFFFFFFFFFFFFFFFFFFFFFFFFFFF DUP3 AND SWAP1 POP SWAP2 SWAP1 POP JUMP JUMPDEST PUSH0 PUSH2 0x3E9 DUP3 PUSH2 0x3C0 JUMP JUMPDEST SWAP1 POP SWAP2 SWAP1 POP JUMP JUMPDEST PUSH2 0x3F9 DUP2 PUSH2 0x3DF JUMP JUMPDEST DUP3 MSTORE POP POP JUMP JUMPDEST PUSH2 0x408 DUP2 PUSH2 0x256 JUMP JUMPDEST DUP3 MSTORE POP POP JUMP JUMPDEST PUSH0 PUSH1 0x60 DUP3 ADD SWAP1 POP PUSH2 0x421 PUSH0 DUP4 ADD DUP7 PUSH2 0x3F0 JUMP JUMPDEST PUSH2 0x42E PUSH1 0x20 DUP4 ADD DUP6 PUSH2 0x3F0 JUMP JUMPDEST PUSH2 0x43B PUSH1 0x40 DUP4 ADD DUP5 PUSH2 0x3FF JUMP JUMPDEST SWAP5 SWAP4 POP POP POP POP JUMP JUMPDEST PUSH0 DUP2 ISZERO ISZERO SWAP1 POP SWAP2 SWAP1 POP JUMP JUMPDEST PUSH2 0x457 DUP2 PUSH2 0x443 JUMP JUMPDEST DUP2 EQ PUSH2 0x461 JUMPI PUSH0 DUP1 REVERT JUMPDEST POP JUMP JUMPDEST PUSH0 DUP2 MLOAD SWAP1 POP PUSH2 0x472 DUP2 PUSH2 0x44E JUMP JUMPDEST SWAP3 SWAP2 POP POP JUMP JUMPDEST PUSH0 PUSH1 0x20 DUP3 DUP5 SUB SLT ISZERO PUSH2 0x48D JUMPI PUSH2 0x48C PUSH2 0x252 JUMP JUMPDEST JUMPDEST PUSH0 PUSH2 0x49A DUP5 DUP3 DUP6 ADD PUSH2 0x464 JUMP JUMPDEST SWAP2 POP POP SWAP3 SWAP2 POP POP JUMP JUMPDEST PUSH0 PUSH1 0x40 DUP3 ADD SWAP1 POP PUSH2 0x4B6 PUSH0 DUP4 ADD DUP6 PUSH2 0x3F0 JUMP JUMPDEST PUSH2 0x4C3 PUSH1 0x20 DUP4 ADD DUP5 PUSH2 0x3FF JUMP JUMPDEST SWAP4 SWAP3 POP POP POP JUMP INVALID LOG2 PUSH5 0x6970667358 0x22 SLT KECCAK256 SHR PUSH26 0x428D8013DF0C7E4CEFB3428EAD43DD940EC7299D2641E0AF5200 CREATE EXTCODECOPY NUMBER 0xAD PUSH5 0x736F6C6343 STOP ADDMOD BYTE STOP CALLER "
		},
		"gasEstimates": {
			"creation": {
				"codeDepositCost": "256000",
				"executionCost": "infinite",
				"totalCost": "infinite"
			},
			"external": {
				"swapFun(uint256)": "infinite"
			}
		},
		"methodIdentifiers": {
			"swapFun(uint256)": "301d4272"
		}
	},
	"abi": [
		{
			"inputs": [
				{
					"internalType": "address",
					"name": "_tokenA",
					"type": "address"
				},
				{
					"internalType": "address",
					"name": "_tokenB",
					"type": "address"
				},
				{
					"internalType": "uint256",
					"name": "_rate",
					"type": "uint256"
				}
			],
			"stateMutability": "nonpayable",
			"type": "constructor"
		},
		{
			"anonymous": false,
			"inputs": [
				{
					"indexed": false,
					"internalType": "address",
					"name": "tokenA",
					"type": "address"
				},
				{
					"indexed": false,
					"internalType": "address",
					"name": "tokenB",
					"type": "address"
				},
				{
					"indexed": false,
					"internalType": "uint256",
					"name": "rate",
					"type": "uint256"
				}
			],
			"name": "swapped",
			"type": "event"
		},
		{
			"inputs": [
				{
					"internalType": "uint256",
					"name": "amount",
					"type": "uint256"
				}
			],
			"name": "swapFun",
			"outputs": [],
			"stateMutability": "nonpayable",
			"type": "function"
		}
	]
}