{
	"contracts/lecture_02/one.sol": {
		"MyContract": {
			"abi": [
				{
					"inputs": [],
					"name": "sendEther",
					"outputs": [],
					"stateMutability": "payable",
					"type": "function"
				}
			],
			"devdoc": {
				"kind": "dev",
				"methods": {},
				"version": 1
			},
			"evm": {
				"assembly": "    /* \"contracts/lecture_02/one.sol\":74:253  contract MyContract {... */\n  mstore(0x40, 0x80)\n  callvalue\n  dup1\n  iszero\n  tag_1\n  jumpi\n  0x00\n  dup1\n  revert\ntag_1:\n  pop\n  dataSize(sub_0)\n  dup1\n  dataOffset(sub_0)\n  0x00\n  codecopy\n  0x00\n  return\nstop\n\nsub_0: assembly {\n        /* \"contracts/lecture_02/one.sol\":74:253  contract MyContract {... */\n      mstore(0x40, 0x80)\n      jumpi(tag_1, lt(calldatasize, 0x04))\n      shr(0xe0, calldataload(0x00))\n      dup1\n      0x0e29df22\n      eq\n      tag_2\n      jumpi\n    tag_1:\n      0x00\n      dup1\n      revert\n        /* \"contracts/lecture_02/one.sol\":103:248  function sendEther() public payable {... */\n    tag_2:\n      tag_3\n      tag_4\n      jump\t// in\n    tag_3:\n      stop\n    tag_4:\n        /* \"contracts/lecture_02/one.sol\":170:177  1 ether */\n      0x0de0b6b3a7640000\n        /* \"contracts/lecture_02/one.sol\":158:167  msg.value */\n      callvalue\n        /* \"contracts/lecture_02/one.sol\":158:177  msg.value >=1 ether */\n      lt\n      iszero\n        /* \"contracts/lecture_02/one.sol\":150:178  require(msg.value >=1 ether) */\n      tag_6\n      jumpi\n      0x00\n      dup1\n      revert\n    tag_6:\n        /* \"contracts/lecture_02/one.sol\":197:207  msg.sender */\n      caller\n        /* \"contracts/lecture_02/one.sol\":189:217  payable(msg.sender).transfer */\n      0xffffffffffffffffffffffffffffffffffffffff\n      and\n        /* \"contracts/lecture_02/one.sol\":189:240  payable(msg.sender).transfer(address(this).balance) */\n      0x08fc\n        /* \"contracts/lecture_02/one.sol\":218:239  address(this).balance */\n      selfbalance\n        /* \"contracts/lecture_02/one.sol\":189:240  payable(msg.sender).transfer(address(this).balance) */\n      swap1\n      dup2\n      iszero\n      mul\n      swap1\n      mload(0x40)\n      0x00\n      mload(0x40)\n      dup1\n      dup4\n      sub\n      dup2\n      dup6\n      dup9\n      dup9\n      call\n      swap4\n      pop\n      pop\n      pop\n      pop\n      iszero\n      dup1\n      iszero\n      tag_8\n      jumpi\n      returndatasize\n      0x00\n      dup1\n      returndatacopy\n      revert(0x00, returndatasize)\n    tag_8:\n      pop\n        /* \"contracts/lecture_02/one.sol\":103:248  function sendEther() public payable {... */\n      jump\t// out\n\n    auxdata: 0xa26469706673582212207745f12c514deed3deb95d648d3d9ebd5707d81c9ec62b8cb8216eb76d90138964736f6c634300081a0033\n}\n",
				"bytecode": {
					"linkReferences": {},
					"object": "6080604052348015600e575f80fd5b5060b580601a5f395ff3fe608060405260043610601b575f3560e01c80630e29df2214601f575b5f80fd5b60256027565b005b670de0b6b3a7640000341015603a575f80fd5b3373ffffffffffffffffffffffffffffffffffffffff166108fc4790811502906040515f60405180830381858888f19350505050158015607c573d5f803e3d5ffd5b5056fea26469706673582212207745f12c514deed3deb95d648d3d9ebd5707d81c9ec62b8cb8216eb76d90138964736f6c634300081a0033",
					"opcodes": "PUSH1 0x80 PUSH1 0x40 MSTORE CALLVALUE DUP1 ISZERO PUSH1 0xE JUMPI PUSH0 DUP1 REVERT JUMPDEST POP PUSH1 0xB5 DUP1 PUSH1 0x1A PUSH0 CODECOPY PUSH0 RETURN INVALID PUSH1 0x80 PUSH1 0x40 MSTORE PUSH1 0x4 CALLDATASIZE LT PUSH1 0x1B JUMPI PUSH0 CALLDATALOAD PUSH1 0xE0 SHR DUP1 PUSH4 0xE29DF22 EQ PUSH1 0x1F JUMPI JUMPDEST PUSH0 DUP1 REVERT JUMPDEST PUSH1 0x25 PUSH1 0x27 JUMP JUMPDEST STOP JUMPDEST PUSH8 0xDE0B6B3A7640000 CALLVALUE LT ISZERO PUSH1 0x3A JUMPI PUSH0 DUP1 REVERT JUMPDEST CALLER PUSH20 0xFFFFFFFFFFFFFFFFFFFFFFFFFFFFFFFFFFFFFFFF AND PUSH2 0x8FC SELFBALANCE SWAP1 DUP2 ISZERO MUL SWAP1 PUSH1 0x40 MLOAD PUSH0 PUSH1 0x40 MLOAD DUP1 DUP4 SUB DUP2 DUP6 DUP9 DUP9 CALL SWAP4 POP POP POP POP ISZERO DUP1 ISZERO PUSH1 0x7C JUMPI RETURNDATASIZE PUSH0 DUP1 RETURNDATACOPY RETURNDATASIZE PUSH0 REVERT JUMPDEST POP JUMP INVALID LOG2 PUSH5 0x6970667358 0x22 SLT KECCAK256 PUSH24 0x45F12C514DEED3DEB95D648D3D9EBD5707D81C9EC62B8CB8 0x21 PUSH15 0xB76D90138964736F6C634300081A00 CALLER "
				},
				"gasEstimates": {
					"creation": {
						"codeDepositCost": "36200",
						"executionCost": "85",
						"totalCost": "36285"
					},
					"external": {
						"sendEther()": "infinite"
					}
				},
				"methodIdentifiers": {
					"sendEther()": "0e29df22"
				}
			},
			"storageLayout": {
				"storage": [],
				"types": null
			},
			"userdoc": {
				"kind": "user",
				"methods": {},
				"version": 1
			}
		}
	}
}