{
	"data": {
		"bytecode": {
			"linkReferences": {},
			"object": "6080604052348015600e575f80fd5b506107888061001c5f395ff3fe60806040526004361061003e575f3560e01c80632ce37b10146100425780639b759f681461006c578063b82d80c014610088578063de74e57b146100b0575b5f80fd5b34801561004d575f80fd5b506100566100ef565b6040516100639190610392565b60405180910390f35b610086600480360381019061008191906103d9565b6100fa565b005b348015610093575f80fd5b506100ae60048036038101906100a99190610482565b61023d565b005b3480156100bb575f80fd5b506100d660048036038101906100d191906104d2565b610302565b6040516100e69493929190610567565b60405180910390f35b5f8080549050905090565b5f805490508210610109575f80fd5b805f838154811061011d5761011c6105aa565b5b905f5260205f209060040201600301541015610137575f80fd5b5f80838154811061014b5761014a6105aa565b5b905f5260205f2090600402016001015f9054906101000a900473ffffffffffffffffffffffffffffffffffffffff1690505f8084815481106101905761018f6105aa565b5b905f5260205f20906004020160020154905080836101ae9190610604565b3410156101b9575f80fd5b8173ffffffffffffffffffffffffffffffffffffffff166323b872dd3033866040518463ffffffff1660e01b81526004016101f693929190610645565b6020604051808303815f875af1158015610212573d5f803e3d5ffd5b505050506040513d601f19601f8201168201806040525081019061023691906106af565b5050505050565b5f821161027f576040517f08c379a000000000000000000000000000000000000000000000000000000000815260040161027690610734565b60405180910390fd5b8273ffffffffffffffffffffffffffffffffffffffff166323b872dd3330856040518463ffffffff1660e01b81526004016102bc93929190610645565b6020604051808303815f875af11580156102d8573d5f803e3d5ffd5b505050506040513d601f19601f820116820180604052508101906102fc91906106af565b50505050565b5f8181548110610310575f80fd5b905f5260205f2090600402015f91509050805f015f9054906101000a900473ffffffffffffffffffffffffffffffffffffffff1690806001015f9054906101000a900473ffffffffffffffffffffffffffffffffffffffff16908060020154908060030154905084565b5f819050919050565b61038c8161037a565b82525050565b5f6020820190506103a55f830184610383565b92915050565b5f80fd5b6103b88161037a565b81146103c2575f80fd5b50565b5f813590506103d3816103af565b92915050565b5f80604083850312156103ef576103ee6103ab565b5b5f6103fc858286016103c5565b925050602061040d858286016103c5565b9150509250929050565b5f73ffffffffffffffffffffffffffffffffffffffff82169050919050565b5f61044082610417565b9050919050565b5f61045182610436565b9050919050565b61046181610447565b811461046b575f80fd5b50565b5f8135905061047c81610458565b92915050565b5f805f60608486031215610499576104986103ab565b5b5f6104a68682870161046e565b93505060206104b7868287016103c5565b92505060406104c8868287016103c5565b9150509250925092565b5f602082840312156104e7576104e66103ab565b5b5f6104f4848285016103c5565b91505092915050565b61050681610436565b82525050565b5f819050919050565b5f61052f61052a61052584610417565b61050c565b610417565b9050919050565b5f61054082610515565b9050919050565b5f61055182610536565b9050919050565b61056181610547565b82525050565b5f60808201905061057a5f8301876104fd565b6105876020830186610558565b6105946040830185610383565b6105a16060830184610383565b95945050505050565b7f4e487b71000000000000000000000000000000000000000000000000000000005f52603260045260245ffd5b7f4e487b71000000000000000000000000000000000000000000000000000000005f52601160045260245ffd5b5f61060e8261037a565b91506106198361037a565b92508282026106278161037a565b9150828204841483151761063e5761063d6105d7565b5b5092915050565b5f6060820190506106585f8301866104fd565b61066560208301856104fd565b6106726040830184610383565b949350505050565b5f8115159050919050565b61068e8161067a565b8114610698575f80fd5b50565b5f815190506106a981610685565b92915050565b5f602082840312156106c4576106c36103ab565b5b5f6106d18482850161069b565b91505092915050565b5f82825260208201905092915050565b7f4d7573742062652067726561746572207468616e2030000000000000000000005f82015250565b5f61071e6016836106da565b9150610729826106ea565b602082019050919050565b5f6020820190508181035f83015261074b81610712565b905091905056fea2646970667358221220c5136406297cd9cf58b3e4d23462e7b95a7db2eda1b01558903e51807e4ba02564736f6c634300081a0033",
			"opcodes": "PUSH1 0x80 PUSH1 0x40 MSTORE CALLVALUE DUP1 ISZERO PUSH1 0xE JUMPI PUSH0 DUP1 REVERT JUMPDEST POP PUSH2 0x788 DUP1 PUSH2 0x1C PUSH0 CODECOPY PUSH0 RETURN INVALID PUSH1 0x80 PUSH1 0x40 MSTORE PUSH1 0x4 CALLDATASIZE LT PUSH2 0x3E JUMPI PUSH0 CALLDATALOAD PUSH1 0xE0 SHR DUP1 PUSH4 0x2CE37B10 EQ PUSH2 0x42 JUMPI DUP1 PUSH4 0x9B759F68 EQ PUSH2 0x6C JUMPI DUP1 PUSH4 0xB82D80C0 EQ PUSH2 0x88 JUMPI DUP1 PUSH4 0xDE74E57B EQ PUSH2 0xB0 JUMPI JUMPDEST PUSH0 DUP1 REVERT JUMPDEST CALLVALUE DUP1 ISZERO PUSH2 0x4D JUMPI PUSH0 DUP1 REVERT JUMPDEST POP PUSH2 0x56 PUSH2 0xEF JUMP JUMPDEST PUSH1 0x40 MLOAD PUSH2 0x63 SWAP2 SWAP1 PUSH2 0x392 JUMP JUMPDEST PUSH1 0x40 MLOAD DUP1 SWAP2 SUB SWAP1 RETURN JUMPDEST PUSH2 0x86 PUSH1 0x4 DUP1 CALLDATASIZE SUB DUP2 ADD SWAP1 PUSH2 0x81 SWAP2 SWAP1 PUSH2 0x3D9 JUMP JUMPDEST PUSH2 0xFA JUMP JUMPDEST STOP JUMPDEST CALLVALUE DUP1 ISZERO PUSH2 0x93 JUMPI PUSH0 DUP1 REVERT JUMPDEST POP PUSH2 0xAE PUSH1 0x4 DUP1 CALLDATASIZE SUB DUP2 ADD SWAP1 PUSH2 0xA9 SWAP2 SWAP1 PUSH2 0x482 JUMP JUMPDEST PUSH2 0x23D JUMP JUMPDEST STOP JUMPDEST CALLVALUE DUP1 ISZERO PUSH2 0xBB JUMPI PUSH0 DUP1 REVERT JUMPDEST POP PUSH2 0xD6 PUSH1 0x4 DUP1 CALLDATASIZE SUB DUP2 ADD SWAP1 PUSH2 0xD1 SWAP2 SWAP1 PUSH2 0x4D2 JUMP JUMPDEST PUSH2 0x302 JUMP JUMPDEST PUSH1 0x40 MLOAD PUSH2 0xE6 SWAP5 SWAP4 SWAP3 SWAP2 SWAP1 PUSH2 0x567 JUMP JUMPDEST PUSH1 0x40 MLOAD DUP1 SWAP2 SUB SWAP1 RETURN JUMPDEST PUSH0 DUP1 DUP1 SLOAD SWAP1 POP SWAP1 POP SWAP1 JUMP JUMPDEST PUSH0 DUP1 SLOAD SWAP1 POP DUP3 LT PUSH2 0x109 JUMPI PUSH0 DUP1 REVERT JUMPDEST DUP1 PUSH0 DUP4 DUP2 SLOAD DUP2 LT PUSH2 0x11D JUMPI PUSH2 0x11C PUSH2 0x5AA JUMP JUMPDEST JUMPDEST SWAP1 PUSH0 MSTORE PUSH1 0x20 PUSH0 KECCAK256 SWAP1 PUSH1 0x4 MUL ADD PUSH1 0x3 ADD SLOAD LT ISZERO PUSH2 0x137 JUMPI PUSH0 DUP1 REVERT JUMPDEST PUSH0 DUP1 DUP4 DUP2 SLOAD DUP2 LT PUSH2 0x14B JUMPI PUSH2 0x14A PUSH2 0x5AA JUMP JUMPDEST JUMPDEST SWAP1 PUSH0 MSTORE PUSH1 0x20 PUSH0 KECCAK256 SWAP1 PUSH1 0x4 MUL ADD PUSH1 0x1 ADD PUSH0 SWAP1 SLOAD SWAP1 PUSH2 0x100 EXP SWAP1 DIV PUSH20 0xFFFFFFFFFFFFFFFFFFFFFFFFFFFFFFFFFFFFFFFF AND SWAP1 POP PUSH0 DUP1 DUP5 DUP2 SLOAD DUP2 LT PUSH2 0x190 JUMPI PUSH2 0x18F PUSH2 0x5AA JUMP JUMPDEST JUMPDEST SWAP1 PUSH0 MSTORE PUSH1 0x20 PUSH0 KECCAK256 SWAP1 PUSH1 0x4 MUL ADD PUSH1 0x2 ADD SLOAD SWAP1 POP DUP1 DUP4 PUSH2 0x1AE SWAP2 SWAP1 PUSH2 0x604 JUMP JUMPDEST CALLVALUE LT ISZERO PUSH2 0x1B9 JUMPI PUSH0 DUP1 REVERT JUMPDEST DUP2 PUSH20 0xFFFFFFFFFFFFFFFFFFFFFFFFFFFFFFFFFFFFFFFF AND PUSH4 0x23B872DD ADDRESS CALLER DUP7 PUSH1 0x40 MLOAD DUP5 PUSH4 0xFFFFFFFF AND PUSH1 0xE0 SHL DUP2 MSTORE PUSH1 0x4 ADD PUSH2 0x1F6 SWAP4 SWAP3 SWAP2 SWAP1 PUSH2 0x645 JUMP JUMPDEST PUSH1 0x20 PUSH1 0x40 MLOAD DUP1 DUP4 SUB DUP2 PUSH0 DUP8 GAS CALL ISZERO DUP1 ISZERO PUSH2 0x212 JUMPI RETURNDATASIZE PUSH0 DUP1 RETURNDATACOPY RETURNDATASIZE PUSH0 REVERT JUMPDEST POP POP POP POP PUSH1 0x40 MLOAD RETURNDATASIZE PUSH1 0x1F NOT PUSH1 0x1F DUP3 ADD AND DUP3 ADD DUP1 PUSH1 0x40 MSTORE POP DUP2 ADD SWAP1 PUSH2 0x236 SWAP2 SWAP1 PUSH2 0x6AF JUMP JUMPDEST POP POP POP POP POP JUMP JUMPDEST PUSH0 DUP3 GT PUSH2 0x27F JUMPI PUSH1 0x40 MLOAD PUSH32 0x8C379A000000000000000000000000000000000000000000000000000000000 DUP2 MSTORE PUSH1 0x4 ADD PUSH2 0x276 SWAP1 PUSH2 0x734 JUMP JUMPDEST PUSH1 0x40 MLOAD DUP1 SWAP2 SUB SWAP1 REVERT JUMPDEST DUP3 PUSH20 0xFFFFFFFFFFFFFFFFFFFFFFFFFFFFFFFFFFFFFFFF AND PUSH4 0x23B872DD CALLER ADDRESS DUP6 PUSH1 0x40 MLOAD DUP5 PUSH4 0xFFFFFFFF AND PUSH1 0xE0 SHL DUP2 MSTORE PUSH1 0x4 ADD PUSH2 0x2BC SWAP4 SWAP3 SWAP2 SWAP1 PUSH2 0x645 JUMP JUMPDEST PUSH1 0x20 PUSH1 0x40 MLOAD DUP1 DUP4 SUB DUP2 PUSH0 DUP8 GAS CALL ISZERO DUP1 ISZERO PUSH2 0x2D8 JUMPI RETURNDATASIZE PUSH0 DUP1 RETURNDATACOPY RETURNDATASIZE PUSH0 REVERT JUMPDEST POP POP POP POP PUSH1 0x40 MLOAD RETURNDATASIZE PUSH1 0x1F NOT PUSH1 0x1F DUP3 ADD AND DUP3 ADD DUP1 PUSH1 0x40 MSTORE POP DUP2 ADD SWAP1 PUSH2 0x2FC SWAP2 SWAP1 PUSH2 0x6AF JUMP JUMPDEST POP POP POP POP JUMP JUMPDEST PUSH0 DUP2 DUP2 SLOAD DUP2 LT PUSH2 0x310 JUMPI PUSH0 DUP1 REVERT JUMPDEST SWAP1 PUSH0 MSTORE PUSH1 0x20 PUSH0 KECCAK256 SWAP1 PUSH1 0x4 MUL ADD PUSH0 SWAP2 POP SWAP1 POP DUP1 PUSH0 ADD PUSH0 SWAP1 SLOAD SWAP1 PUSH2 0x100 EXP SWAP1 DIV PUSH20 0xFFFFFFFFFFFFFFFFFFFFFFFFFFFFFFFFFFFFFFFF AND SWAP1 DUP1 PUSH1 0x1 ADD PUSH0 SWAP1 SLOAD SWAP1 PUSH2 0x100 EXP SWAP1 DIV PUSH20 0xFFFFFFFFFFFFFFFFFFFFFFFFFFFFFFFFFFFFFFFF AND SWAP1 DUP1 PUSH1 0x2 ADD SLOAD SWAP1 DUP1 PUSH1 0x3 ADD SLOAD SWAP1 POP DUP5 JUMP JUMPDEST PUSH0 DUP2 SWAP1 POP SWAP2 SWAP1 POP JUMP JUMPDEST PUSH2 0x38C DUP2 PUSH2 0x37A JUMP JUMPDEST DUP3 MSTORE POP POP JUMP JUMPDEST PUSH0 PUSH1 0x20 DUP3 ADD SWAP1 POP PUSH2 0x3A5 PUSH0 DUP4 ADD DUP5 PUSH2 0x383 JUMP JUMPDEST SWAP3 SWAP2 POP POP JUMP JUMPDEST PUSH0 DUP1 REVERT JUMPDEST PUSH2 0x3B8 DUP2 PUSH2 0x37A JUMP JUMPDEST DUP2 EQ PUSH2 0x3C2 JUMPI PUSH0 DUP1 REVERT JUMPDEST POP JUMP JUMPDEST PUSH0 DUP2 CALLDATALOAD SWAP1 POP PUSH2 0x3D3 DUP2 PUSH2 0x3AF JUMP JUMPDEST SWAP3 SWAP2 POP POP JUMP JUMPDEST PUSH0 DUP1 PUSH1 0x40 DUP4 DUP6 SUB SLT ISZERO PUSH2 0x3EF JUMPI PUSH2 0x3EE PUSH2 0x3AB JUMP JUMPDEST JUMPDEST PUSH0 PUSH2 0x3FC DUP6 DUP3 DUP7 ADD PUSH2 0x3C5 JUMP JUMPDEST SWAP3 POP POP PUSH1 0x20 PUSH2 0x40D DUP6 DUP3 DUP7 ADD PUSH2 0x3C5 JUMP JUMPDEST SWAP2 POP POP SWAP3 POP SWAP3 SWAP1 POP JUMP JUMPDEST PUSH0 PUSH20 0xFFFFFFFFFFFFFFFFFFFFFFFFFFFFFFFFFFFFFFFF DUP3 AND SWAP1 POP SWAP2 SWAP1 POP JUMP JUMPDEST PUSH0 PUSH2 0x440 DUP3 PUSH2 0x417 JUMP JUMPDEST SWAP1 POP SWAP2 SWAP1 POP JUMP JUMPDEST PUSH0 PUSH2 0x451 DUP3 PUSH2 0x436 JUMP JUMPDEST SWAP1 POP SWAP2 SWAP1 POP JUMP JUMPDEST PUSH2 0x461 DUP2 PUSH2 0x447 JUMP JUMPDEST DUP2 EQ PUSH2 0x46B JUMPI PUSH0 DUP1 REVERT JUMPDEST POP JUMP JUMPDEST PUSH0 DUP2 CALLDATALOAD SWAP1 POP PUSH2 0x47C DUP2 PUSH2 0x458 JUMP JUMPDEST SWAP3 SWAP2 POP POP JUMP JUMPDEST PUSH0 DUP1 PUSH0 PUSH1 0x60 DUP5 DUP7 SUB SLT ISZERO PUSH2 0x499 JUMPI PUSH2 0x498 PUSH2 0x3AB JUMP JUMPDEST JUMPDEST PUSH0 PUSH2 0x4A6 DUP7 DUP3 DUP8 ADD PUSH2 0x46E JUMP JUMPDEST SWAP4 POP POP PUSH1 0x20 PUSH2 0x4B7 DUP7 DUP3 DUP8 ADD PUSH2 0x3C5 JUMP JUMPDEST SWAP3 POP POP PUSH1 0x40 PUSH2 0x4C8 DUP7 DUP3 DUP8 ADD PUSH2 0x3C5 JUMP JUMPDEST SWAP2 POP POP SWAP3 POP SWAP3 POP SWAP3 JUMP JUMPDEST PUSH0 PUSH1 0x20 DUP3 DUP5 SUB SLT ISZERO PUSH2 0x4E7 JUMPI PUSH2 0x4E6 PUSH2 0x3AB JUMP JUMPDEST JUMPDEST PUSH0 PUSH2 0x4F4 DUP5 DUP3 DUP6 ADD PUSH2 0x3C5 JUMP JUMPDEST SWAP2 POP POP SWAP3 SWAP2 POP POP JUMP JUMPDEST PUSH2 0x506 DUP2 PUSH2 0x436 JUMP JUMPDEST DUP3 MSTORE POP POP JUMP JUMPDEST PUSH0 DUP2 SWAP1 POP SWAP2 SWAP1 POP JUMP JUMPDEST PUSH0 PUSH2 0x52F PUSH2 0x52A PUSH2 0x525 DUP5 PUSH2 0x417 JUMP JUMPDEST PUSH2 0x50C JUMP JUMPDEST PUSH2 0x417 JUMP JUMPDEST SWAP1 POP SWAP2 SWAP1 POP JUMP JUMPDEST PUSH0 PUSH2 0x540 DUP3 PUSH2 0x515 JUMP JUMPDEST SWAP1 POP SWAP2 SWAP1 POP JUMP JUMPDEST PUSH0 PUSH2 0x551 DUP3 PUSH2 0x536 JUMP JUMPDEST SWAP1 POP SWAP2 SWAP1 POP JUMP JUMPDEST PUSH2 0x561 DUP2 PUSH2 0x547 JUMP JUMPDEST DUP3 MSTORE POP POP JUMP JUMPDEST PUSH0 PUSH1 0x80 DUP3 ADD SWAP1 POP PUSH2 0x57A PUSH0 DUP4 ADD DUP8 PUSH2 0x4FD JUMP JUMPDEST PUSH2 0x587 PUSH1 0x20 DUP4 ADD DUP7 PUSH2 0x558 JUMP JUMPDEST PUSH2 0x594 PUSH1 0x40 DUP4 ADD DUP6 PUSH2 0x383 JUMP JUMPDEST PUSH2 0x5A1 PUSH1 0x60 DUP4 ADD DUP5 PUSH2 0x383 JUMP JUMPDEST SWAP6 SWAP5 POP POP POP POP POP JUMP JUMPDEST PUSH32 0x4E487B7100000000000000000000000000000000000000000000000000000000 PUSH0 MSTORE PUSH1 0x32 PUSH1 0x4 MSTORE PUSH1 0x24 PUSH0 REVERT JUMPDEST PUSH32 0x4E487B7100000000000000000000000000000000000000000000000000000000 PUSH0 MSTORE PUSH1 0x11 PUSH1 0x4 MSTORE PUSH1 0x24 PUSH0 REVERT JUMPDEST PUSH0 PUSH2 0x60E DUP3 PUSH2 0x37A JUMP JUMPDEST SWAP2 POP PUSH2 0x619 DUP4 PUSH2 0x37A JUMP JUMPDEST SWAP3 POP DUP3 DUP3 MUL PUSH2 0x627 DUP2 PUSH2 0x37A JUMP JUMPDEST SWAP2 POP DUP3 DUP3 DIV DUP5 EQ DUP4 ISZERO OR PUSH2 0x63E JUMPI PUSH2 0x63D PUSH2 0x5D7 JUMP JUMPDEST JUMPDEST POP SWAP3 SWAP2 POP POP JUMP JUMPDEST PUSH0 PUSH1 0x60 DUP3 ADD SWAP1 POP PUSH2 0x658 PUSH0 DUP4 ADD DUP7 PUSH2 0x4FD JUMP JUMPDEST PUSH2 0x665 PUSH1 0x20 DUP4 ADD DUP6 PUSH2 0x4FD JUMP JUMPDEST PUSH2 0x672 PUSH1 0x40 DUP4 ADD DUP5 PUSH2 0x383 JUMP JUMPDEST SWAP5 SWAP4 POP POP POP POP JUMP JUMPDEST PUSH0 DUP2 ISZERO ISZERO SWAP1 POP SWAP2 SWAP1 POP JUMP JUMPDEST PUSH2 0x68E DUP2 PUSH2 0x67A JUMP JUMPDEST DUP2 EQ PUSH2 0x698 JUMPI PUSH0 DUP1 REVERT JUMPDEST POP JUMP JUMPDEST PUSH0 DUP2 MLOAD SWAP1 POP PUSH2 0x6A9 DUP2 PUSH2 0x685 JUMP JUMPDEST SWAP3 SWAP2 POP POP JUMP JUMPDEST PUSH0 PUSH1 0x20 DUP3 DUP5 SUB SLT ISZERO PUSH2 0x6C4 JUMPI PUSH2 0x6C3 PUSH2 0x3AB JUMP JUMPDEST JUMPDEST PUSH0 PUSH2 0x6D1 DUP5 DUP3 DUP6 ADD PUSH2 0x69B JUMP JUMPDEST SWAP2 POP POP SWAP3 SWAP2 POP POP JUMP JUMPDEST PUSH0 DUP3 DUP3 MSTORE PUSH1 0x20 DUP3 ADD SWAP1 POP SWAP3 SWAP2 POP POP JUMP JUMPDEST PUSH32 0x4D7573742062652067726561746572207468616E203000000000000000000000 PUSH0 DUP3 ADD MSTORE POP JUMP JUMPDEST PUSH0 PUSH2 0x71E PUSH1 0x16 DUP4 PUSH2 0x6DA JUMP JUMPDEST SWAP2 POP PUSH2 0x729 DUP3 PUSH2 0x6EA JUMP JUMPDEST PUSH1 0x20 DUP3 ADD SWAP1 POP SWAP2 SWAP1 POP JUMP JUMPDEST PUSH0 PUSH1 0x20 DUP3 ADD SWAP1 POP DUP2 DUP2 SUB PUSH0 DUP4 ADD MSTORE PUSH2 0x74B DUP2 PUSH2 0x712 JUMP JUMPDEST SWAP1 POP SWAP2 SWAP1 POP JUMP INVALID LOG2 PUSH5 0x6970667358 0x22 SLT KECCAK256 0xC5 SGT PUSH5 0x6297CD9CF PC 0xB3 0xE4 0xD2 CALLVALUE PUSH3 0xE7B95A PUSH30 0xB2EDA1B01558903E51807E4BA02564736F6C634300081A00330000000000 "
		},
		"gasEstimates": {
			"creation": {
				"codeDepositCost": "385600",
				"executionCost": "422",
				"totalCost": "386022"
			},
			"external": {
				"BuyTokens(uint256,uint256)": "infinite",
				"ListTokens(address,uint256,uint256)": "infinite",
				"getListCount()": "2418",
				"listings(uint256)": "infinite"
			}
		},
		"methodIdentifiers": {
			"BuyTokens(uint256,uint256)": "9b759f68",
			"ListTokens(address,uint256,uint256)": "b82d80c0",
			"getListCount()": "2ce37b10",
			"listings(uint256)": "de74e57b"
		}
	},
	"abi": [
		{
			"inputs": [
				{
					"internalType": "uint256",
					"name": "ListingID",
					"type": "uint256"
				},
				{
					"internalType": "uint256",
					"name": "TokenAmount",
					"type": "uint256"
				}
			],
			"name": "BuyTokens",
			"outputs": [],
			"stateMutability": "payable",
			"type": "function"
		},
		{
			"inputs": [
				{
					"internalType": "contract IERC20",
					"name": "token",
					"type": "address"
				},
				{
					"internalType": "uint256",
					"name": "totalAmount",
					"type": "uint256"
				},
				{
					"internalType": "uint256",
					"name": "pricePerToken",
					"type": "uint256"
				}
			],
			"name": "ListTokens",
			"outputs": [],
			"stateMutability": "nonpayable",
			"type": "function"
		},
		{
			"inputs": [],
			"name": "getListCount",
			"outputs": [
				{
					"internalType": "uint256",
					"name": "",
					"type": "uint256"
				}
			],
			"stateMutability": "view",
			"type": "function"
		},
		{
			"inputs": [
				{
					"internalType": "uint256",
					"name": "",
					"type": "uint256"
				}
			],
			"name": "listings",
			"outputs": [
				{
					"internalType": "address",
					"name": "seller",
					"type": "address"
				},
				{
					"internalType": "contract IERC20",
					"name": "token",
					"type": "address"
				},
				{
					"internalType": "uint256",
					"name": "pricePerToken",
					"type": "uint256"
				},
				{
					"internalType": "uint256",
					"name": "remainingAmount",
					"type": "uint256"
				}
			],
			"stateMutability": "view",
			"type": "function"
		}
	]
}