{
	"data": {
		"bytecode": {
			"linkReferences": {},
			"object": "6080604052348015600e575f80fd5b5061077c8061001c5f395ff3fe60806040526004361061003e575f3560e01c80632ce37b10146100425780639b759f681461006c578063b82d80c014610088578063de74e57b146100a4575b5f80fd5b34801561004d575f80fd5b506100566100e3565b6040516100639190610386565b60405180910390f35b610086600480360381019061008191906103cd565b6100ee565b005b6100a2600480360381019061009d9190610476565b610231565b005b3480156100af575f80fd5b506100ca60048036038101906100c591906104c6565b6102f6565b6040516100da949392919061055b565b60405180910390f35b5f8080549050905090565b5f8054905082106100fd575f80fd5b805f83815481106101115761011061059e565b5b905f5260205f20906004020160030154101561012b575f80fd5b5f80838154811061013f5761013e61059e565b5b905f5260205f2090600402016001015f9054906101000a900473ffffffffffffffffffffffffffffffffffffffff1690505f8084815481106101845761018361059e565b5b905f5260205f20906004020160020154905080836101a291906105f8565b3410156101ad575f80fd5b8173ffffffffffffffffffffffffffffffffffffffff166323b872dd3033866040518463ffffffff1660e01b81526004016101ea93929190610639565b6020604051808303815f875af1158015610206573d5f803e3d5ffd5b505050506040513d601f19601f8201168201806040525081019061022a91906106a3565b5050505050565b5f8211610273576040517f08c379a000000000000000000000000000000000000000000000000000000000815260040161026a90610728565b60405180910390fd5b8273ffffffffffffffffffffffffffffffffffffffff166323b872dd3330856040518463ffffffff1660e01b81526004016102b093929190610639565b6020604051808303815f875af11580156102cc573d5f803e3d5ffd5b505050506040513d601f19601f820116820180604052508101906102f091906106a3565b50505050565b5f8181548110610304575f80fd5b905f5260205f2090600402015f91509050805f015f9054906101000a900473ffffffffffffffffffffffffffffffffffffffff1690806001015f9054906101000a900473ffffffffffffffffffffffffffffffffffffffff16908060020154908060030154905084565b5f819050919050565b6103808161036e565b82525050565b5f6020820190506103995f830184610377565b92915050565b5f80fd5b6103ac8161036e565b81146103b6575f80fd5b50565b5f813590506103c7816103a3565b92915050565b5f80604083850312156103e3576103e261039f565b5b5f6103f0858286016103b9565b9250506020610401858286016103b9565b9150509250929050565b5f73ffffffffffffffffffffffffffffffffffffffff82169050919050565b5f6104348261040b565b9050919050565b5f6104458261042a565b9050919050565b6104558161043b565b811461045f575f80fd5b50565b5f813590506104708161044c565b92915050565b5f805f6060848603121561048d5761048c61039f565b5b5f61049a86828701610462565b93505060206104ab868287016103b9565b92505060406104bc868287016103b9565b9150509250925092565b5f602082840312156104db576104da61039f565b5b5f6104e8848285016103b9565b91505092915050565b6104fa8161042a565b82525050565b5f819050919050565b5f61052361051e6105198461040b565b610500565b61040b565b9050919050565b5f61053482610509565b9050919050565b5f6105458261052a565b9050919050565b6105558161053b565b82525050565b5f60808201905061056e5f8301876104f1565b61057b602083018661054c565b6105886040830185610377565b6105956060830184610377565b95945050505050565b7f4e487b71000000000000000000000000000000000000000000000000000000005f52603260045260245ffd5b7f4e487b71000000000000000000000000000000000000000000000000000000005f52601160045260245ffd5b5f6106028261036e565b915061060d8361036e565b925082820261061b8161036e565b91508282048414831517610632576106316105cb565b5b5092915050565b5f60608201905061064c5f8301866104f1565b61065960208301856104f1565b6106666040830184610377565b949350505050565b5f8115159050919050565b6106828161066e565b811461068c575f80fd5b50565b5f8151905061069d81610679565b92915050565b5f602082840312156106b8576106b761039f565b5b5f6106c58482850161068f565b91505092915050565b5f82825260208201905092915050565b7f4d7573742062652067726561746572207468616e2030000000000000000000005f82015250565b5f6107126016836106ce565b915061071d826106de565b602082019050919050565b5f6020820190508181035f83015261073f81610706565b905091905056fea2646970667358221220d19a76a06c459b4bbd921bc395ca793804717005b7532538ea4199c5a3d7f31764736f6c634300081a0033",
			"opcodes": "PUSH1 0x80 PUSH1 0x40 MSTORE CALLVALUE DUP1 ISZERO PUSH1 0xE JUMPI PUSH0 DUP1 REVERT JUMPDEST POP PUSH2 0x77C DUP1 PUSH2 0x1C PUSH0 CODECOPY PUSH0 RETURN INVALID PUSH1 0x80 PUSH1 0x40 MSTORE PUSH1 0x4 CALLDATASIZE LT PUSH2 0x3E JUMPI PUSH0 CALLDATALOAD PUSH1 0xE0 SHR DUP1 PUSH4 0x2CE37B10 EQ PUSH2 0x42 JUMPI DUP1 PUSH4 0x9B759F68 EQ PUSH2 0x6C JUMPI DUP1 PUSH4 0xB82D80C0 EQ PUSH2 0x88 JUMPI DUP1 PUSH4 0xDE74E57B EQ PUSH2 0xA4 JUMPI JUMPDEST PUSH0 DUP1 REVERT JUMPDEST CALLVALUE DUP1 ISZERO PUSH2 0x4D JUMPI PUSH0 DUP1 REVERT JUMPDEST POP PUSH2 0x56 PUSH2 0xE3 JUMP JUMPDEST PUSH1 0x40 MLOAD PUSH2 0x63 SWAP2 SWAP1 PUSH2 0x386 JUMP JUMPDEST PUSH1 0x40 MLOAD DUP1 SWAP2 SUB SWAP1 RETURN JUMPDEST PUSH2 0x86 PUSH1 0x4 DUP1 CALLDATASIZE SUB DUP2 ADD SWAP1 PUSH2 0x81 SWAP2 SWAP1 PUSH2 0x3CD JUMP JUMPDEST PUSH2 0xEE JUMP JUMPDEST STOP JUMPDEST PUSH2 0xA2 PUSH1 0x4 DUP1 CALLDATASIZE SUB DUP2 ADD SWAP1 PUSH2 0x9D SWAP2 SWAP1 PUSH2 0x476 JUMP JUMPDEST PUSH2 0x231 JUMP JUMPDEST STOP JUMPDEST CALLVALUE DUP1 ISZERO PUSH2 0xAF JUMPI PUSH0 DUP1 REVERT JUMPDEST POP PUSH2 0xCA PUSH1 0x4 DUP1 CALLDATASIZE SUB DUP2 ADD SWAP1 PUSH2 0xC5 SWAP2 SWAP1 PUSH2 0x4C6 JUMP JUMPDEST PUSH2 0x2F6 JUMP JUMPDEST PUSH1 0x40 MLOAD PUSH2 0xDA SWAP5 SWAP4 SWAP3 SWAP2 SWAP1 PUSH2 0x55B JUMP JUMPDEST PUSH1 0x40 MLOAD DUP1 SWAP2 SUB SWAP1 RETURN JUMPDEST PUSH0 DUP1 DUP1 SLOAD SWAP1 POP SWAP1 POP SWAP1 JUMP JUMPDEST PUSH0 DUP1 SLOAD SWAP1 POP DUP3 LT PUSH2 0xFD JUMPI PUSH0 DUP1 REVERT JUMPDEST DUP1 PUSH0 DUP4 DUP2 SLOAD DUP2 LT PUSH2 0x111 JUMPI PUSH2 0x110 PUSH2 0x59E JUMP JUMPDEST JUMPDEST SWAP1 PUSH0 MSTORE PUSH1 0x20 PUSH0 KECCAK256 SWAP1 PUSH1 0x4 MUL ADD PUSH1 0x3 ADD SLOAD LT ISZERO PUSH2 0x12B JUMPI PUSH0 DUP1 REVERT JUMPDEST PUSH0 DUP1 DUP4 DUP2 SLOAD DUP2 LT PUSH2 0x13F JUMPI PUSH2 0x13E PUSH2 0x59E JUMP JUMPDEST JUMPDEST SWAP1 PUSH0 MSTORE PUSH1 0x20 PUSH0 KECCAK256 SWAP1 PUSH1 0x4 MUL ADD PUSH1 0x1 ADD PUSH0 SWAP1 SLOAD SWAP1 PUSH2 0x100 EXP SWAP1 DIV PUSH20 0xFFFFFFFFFFFFFFFFFFFFFFFFFFFFFFFFFFFFFFFF AND SWAP1 POP PUSH0 DUP1 DUP5 DUP2 SLOAD DUP2 LT PUSH2 0x184 JUMPI PUSH2 0x183 PUSH2 0x59E JUMP JUMPDEST JUMPDEST SWAP1 PUSH0 MSTORE PUSH1 0x20 PUSH0 KECCAK256 SWAP1 PUSH1 0x4 MUL ADD PUSH1 0x2 ADD SLOAD SWAP1 POP DUP1 DUP4 PUSH2 0x1A2 SWAP2 SWAP1 PUSH2 0x5F8 JUMP JUMPDEST CALLVALUE LT ISZERO PUSH2 0x1AD JUMPI PUSH0 DUP1 REVERT JUMPDEST DUP2 PUSH20 0xFFFFFFFFFFFFFFFFFFFFFFFFFFFFFFFFFFFFFFFF AND PUSH4 0x23B872DD ADDRESS CALLER DUP7 PUSH1 0x40 MLOAD DUP5 PUSH4 0xFFFFFFFF AND PUSH1 0xE0 SHL DUP2 MSTORE PUSH1 0x4 ADD PUSH2 0x1EA SWAP4 SWAP3 SWAP2 SWAP1 PUSH2 0x639 JUMP JUMPDEST PUSH1 0x20 PUSH1 0x40 MLOAD DUP1 DUP4 SUB DUP2 PUSH0 DUP8 GAS CALL ISZERO DUP1 ISZERO PUSH2 0x206 JUMPI RETURNDATASIZE PUSH0 DUP1 RETURNDATACOPY RETURNDATASIZE PUSH0 REVERT JUMPDEST POP POP POP POP PUSH1 0x40 MLOAD RETURNDATASIZE PUSH1 0x1F NOT PUSH1 0x1F DUP3 ADD AND DUP3 ADD DUP1 PUSH1 0x40 MSTORE POP DUP2 ADD SWAP1 PUSH2 0x22A SWAP2 SWAP1 PUSH2 0x6A3 JUMP JUMPDEST POP POP POP POP POP JUMP JUMPDEST PUSH0 DUP3 GT PUSH2 0x273 JUMPI PUSH1 0x40 MLOAD PUSH32 0x8C379A000000000000000000000000000000000000000000000000000000000 DUP2 MSTORE PUSH1 0x4 ADD PUSH2 0x26A SWAP1 PUSH2 0x728 JUMP JUMPDEST PUSH1 0x40 MLOAD DUP1 SWAP2 SUB SWAP1 REVERT JUMPDEST DUP3 PUSH20 0xFFFFFFFFFFFFFFFFFFFFFFFFFFFFFFFFFFFFFFFF AND PUSH4 0x23B872DD CALLER ADDRESS DUP6 PUSH1 0x40 MLOAD DUP5 PUSH4 0xFFFFFFFF AND PUSH1 0xE0 SHL DUP2 MSTORE PUSH1 0x4 ADD PUSH2 0x2B0 SWAP4 SWAP3 SWAP2 SWAP1 PUSH2 0x639 JUMP JUMPDEST PUSH1 0x20 PUSH1 0x40 MLOAD DUP1 DUP4 SUB DUP2 PUSH0 DUP8 GAS CALL ISZERO DUP1 ISZERO PUSH2 0x2CC JUMPI RETURNDATASIZE PUSH0 DUP1 RETURNDATACOPY RETURNDATASIZE PUSH0 REVERT JUMPDEST POP POP POP POP PUSH1 0x40 MLOAD RETURNDATASIZE PUSH1 0x1F NOT PUSH1 0x1F DUP3 ADD AND DUP3 ADD DUP1 PUSH1 0x40 MSTORE POP DUP2 ADD SWAP1 PUSH2 0x2F0 SWAP2 SWAP1 PUSH2 0x6A3 JUMP JUMPDEST POP POP POP POP JUMP JUMPDEST PUSH0 DUP2 DUP2 SLOAD DUP2 LT PUSH2 0x304 JUMPI PUSH0 DUP1 REVERT JUMPDEST SWAP1 PUSH0 MSTORE PUSH1 0x20 PUSH0 KECCAK256 SWAP1 PUSH1 0x4 MUL ADD PUSH0 SWAP2 POP SWAP1 POP DUP1 PUSH0 ADD PUSH0 SWAP1 SLOAD SWAP1 PUSH2 0x100 EXP SWAP1 DIV PUSH20 0xFFFFFFFFFFFFFFFFFFFFFFFFFFFFFFFFFFFFFFFF AND SWAP1 DUP1 PUSH1 0x1 ADD PUSH0 SWAP1 SLOAD SWAP1 PUSH2 0x100 EXP SWAP1 DIV PUSH20 0xFFFFFFFFFFFFFFFFFFFFFFFFFFFFFFFFFFFFFFFF AND SWAP1 DUP1 PUSH1 0x2 ADD SLOAD SWAP1 DUP1 PUSH1 0x3 ADD SLOAD SWAP1 POP DUP5 JUMP JUMPDEST PUSH0 DUP2 SWAP1 POP SWAP2 SWAP1 POP JUMP JUMPDEST PUSH2 0x380 DUP2 PUSH2 0x36E JUMP JUMPDEST DUP3 MSTORE POP POP JUMP JUMPDEST PUSH0 PUSH1 0x20 DUP3 ADD SWAP1 POP PUSH2 0x399 PUSH0 DUP4 ADD DUP5 PUSH2 0x377 JUMP JUMPDEST SWAP3 SWAP2 POP POP JUMP JUMPDEST PUSH0 DUP1 REVERT JUMPDEST PUSH2 0x3AC DUP2 PUSH2 0x36E JUMP JUMPDEST DUP2 EQ PUSH2 0x3B6 JUMPI PUSH0 DUP1 REVERT JUMPDEST POP JUMP JUMPDEST PUSH0 DUP2 CALLDATALOAD SWAP1 POP PUSH2 0x3C7 DUP2 PUSH2 0x3A3 JUMP JUMPDEST SWAP3 SWAP2 POP POP JUMP JUMPDEST PUSH0 DUP1 PUSH1 0x40 DUP4 DUP6 SUB SLT ISZERO PUSH2 0x3E3 JUMPI PUSH2 0x3E2 PUSH2 0x39F JUMP JUMPDEST JUMPDEST PUSH0 PUSH2 0x3F0 DUP6 DUP3 DUP7 ADD PUSH2 0x3B9 JUMP JUMPDEST SWAP3 POP POP PUSH1 0x20 PUSH2 0x401 DUP6 DUP3 DUP7 ADD PUSH2 0x3B9 JUMP JUMPDEST SWAP2 POP POP SWAP3 POP SWAP3 SWAP1 POP JUMP JUMPDEST PUSH0 PUSH20 0xFFFFFFFFFFFFFFFFFFFFFFFFFFFFFFFFFFFFFFFF DUP3 AND SWAP1 POP SWAP2 SWAP1 POP JUMP JUMPDEST PUSH0 PUSH2 0x434 DUP3 PUSH2 0x40B JUMP JUMPDEST SWAP1 POP SWAP2 SWAP1 POP JUMP JUMPDEST PUSH0 PUSH2 0x445 DUP3 PUSH2 0x42A JUMP JUMPDEST SWAP1 POP SWAP2 SWAP1 POP JUMP JUMPDEST PUSH2 0x455 DUP2 PUSH2 0x43B JUMP JUMPDEST DUP2 EQ PUSH2 0x45F JUMPI PUSH0 DUP1 REVERT JUMPDEST POP JUMP JUMPDEST PUSH0 DUP2 CALLDATALOAD SWAP1 POP PUSH2 0x470 DUP2 PUSH2 0x44C JUMP JUMPDEST SWAP3 SWAP2 POP POP JUMP JUMPDEST PUSH0 DUP1 PUSH0 PUSH1 0x60 DUP5 DUP7 SUB SLT ISZERO PUSH2 0x48D JUMPI PUSH2 0x48C PUSH2 0x39F JUMP JUMPDEST JUMPDEST PUSH0 PUSH2 0x49A DUP7 DUP3 DUP8 ADD PUSH2 0x462 JUMP JUMPDEST SWAP4 POP POP PUSH1 0x20 PUSH2 0x4AB DUP7 DUP3 DUP8 ADD PUSH2 0x3B9 JUMP JUMPDEST SWAP3 POP POP PUSH1 0x40 PUSH2 0x4BC DUP7 DUP3 DUP8 ADD PUSH2 0x3B9 JUMP JUMPDEST SWAP2 POP POP SWAP3 POP SWAP3 POP SWAP3 JUMP JUMPDEST PUSH0 PUSH1 0x20 DUP3 DUP5 SUB SLT ISZERO PUSH2 0x4DB JUMPI PUSH2 0x4DA PUSH2 0x39F JUMP JUMPDEST JUMPDEST PUSH0 PUSH2 0x4E8 DUP5 DUP3 DUP6 ADD PUSH2 0x3B9 JUMP JUMPDEST SWAP2 POP POP SWAP3 SWAP2 POP POP JUMP JUMPDEST PUSH2 0x4FA DUP2 PUSH2 0x42A JUMP JUMPDEST DUP3 MSTORE POP POP JUMP JUMPDEST PUSH0 DUP2 SWAP1 POP SWAP2 SWAP1 POP JUMP JUMPDEST PUSH0 PUSH2 0x523 PUSH2 0x51E PUSH2 0x519 DUP5 PUSH2 0x40B JUMP JUMPDEST PUSH2 0x500 JUMP JUMPDEST PUSH2 0x40B JUMP JUMPDEST SWAP1 POP SWAP2 SWAP1 POP JUMP JUMPDEST PUSH0 PUSH2 0x534 DUP3 PUSH2 0x509 JUMP JUMPDEST SWAP1 POP SWAP2 SWAP1 POP JUMP JUMPDEST PUSH0 PUSH2 0x545 DUP3 PUSH2 0x52A JUMP JUMPDEST SWAP1 POP SWAP2 SWAP1 POP JUMP JUMPDEST PUSH2 0x555 DUP2 PUSH2 0x53B JUMP JUMPDEST DUP3 MSTORE POP POP JUMP JUMPDEST PUSH0 PUSH1 0x80 DUP3 ADD SWAP1 POP PUSH2 0x56E PUSH0 DUP4 ADD DUP8 PUSH2 0x4F1 JUMP JUMPDEST PUSH2 0x57B PUSH1 0x20 DUP4 ADD DUP7 PUSH2 0x54C JUMP JUMPDEST PUSH2 0x588 PUSH1 0x40 DUP4 ADD DUP6 PUSH2 0x377 JUMP JUMPDEST PUSH2 0x595 PUSH1 0x60 DUP4 ADD DUP5 PUSH2 0x377 JUMP JUMPDEST SWAP6 SWAP5 POP POP POP POP POP JUMP JUMPDEST PUSH32 0x4E487B7100000000000000000000000000000000000000000000000000000000 PUSH0 MSTORE PUSH1 0x32 PUSH1 0x4 MSTORE PUSH1 0x24 PUSH0 REVERT JUMPDEST PUSH32 0x4E487B7100000000000000000000000000000000000000000000000000000000 PUSH0 MSTORE PUSH1 0x11 PUSH1 0x4 MSTORE PUSH1 0x24 PUSH0 REVERT JUMPDEST PUSH0 PUSH2 0x602 DUP3 PUSH2 0x36E JUMP JUMPDEST SWAP2 POP PUSH2 0x60D DUP4 PUSH2 0x36E JUMP JUMPDEST SWAP3 POP DUP3 DUP3 MUL PUSH2 0x61B DUP2 PUSH2 0x36E JUMP JUMPDEST SWAP2 POP DUP3 DUP3 DIV DUP5 EQ DUP4 ISZERO OR PUSH2 0x632 JUMPI PUSH2 0x631 PUSH2 0x5CB JUMP JUMPDEST JUMPDEST POP SWAP3 SWAP2 POP POP JUMP JUMPDEST PUSH0 PUSH1 0x60 DUP3 ADD SWAP1 POP PUSH2 0x64C PUSH0 DUP4 ADD DUP7 PUSH2 0x4F1 JUMP JUMPDEST PUSH2 0x659 PUSH1 0x20 DUP4 ADD DUP6 PUSH2 0x4F1 JUMP JUMPDEST PUSH2 0x666 PUSH1 0x40 DUP4 ADD DUP5 PUSH2 0x377 JUMP JUMPDEST SWAP5 SWAP4 POP POP POP POP JUMP JUMPDEST PUSH0 DUP2 ISZERO ISZERO SWAP1 POP SWAP2 SWAP1 POP JUMP JUMPDEST PUSH2 0x682 DUP2 PUSH2 0x66E JUMP JUMPDEST DUP2 EQ PUSH2 0x68C JUMPI PUSH0 DUP1 REVERT JUMPDEST POP JUMP JUMPDEST PUSH0 DUP2 MLOAD SWAP1 POP PUSH2 0x69D DUP2 PUSH2 0x679 JUMP JUMPDEST SWAP3 SWAP2 POP POP JUMP JUMPDEST PUSH0 PUSH1 0x20 DUP3 DUP5 SUB SLT ISZERO PUSH2 0x6B8 JUMPI PUSH2 0x6B7 PUSH2 0x39F JUMP JUMPDEST JUMPDEST PUSH0 PUSH2 0x6C5 DUP5 DUP3 DUP6 ADD PUSH2 0x68F JUMP JUMPDEST SWAP2 POP POP SWAP3 SWAP2 POP POP JUMP JUMPDEST PUSH0 DUP3 DUP3 MSTORE PUSH1 0x20 DUP3 ADD SWAP1 POP SWAP3 SWAP2 POP POP JUMP JUMPDEST PUSH32 0x4D7573742062652067726561746572207468616E203000000000000000000000 PUSH0 DUP3 ADD MSTORE POP JUMP JUMPDEST PUSH0 PUSH2 0x712 PUSH1 0x16 DUP4 PUSH2 0x6CE JUMP JUMPDEST SWAP2 POP PUSH2 0x71D DUP3 PUSH2 0x6DE JUMP JUMPDEST PUSH1 0x20 DUP3 ADD SWAP1 POP SWAP2 SWAP1 POP JUMP JUMPDEST PUSH0 PUSH1 0x20 DUP3 ADD SWAP1 POP DUP2 DUP2 SUB PUSH0 DUP4 ADD MSTORE PUSH2 0x73F DUP2 PUSH2 0x706 JUMP JUMPDEST SWAP1 POP SWAP2 SWAP1 POP JUMP INVALID LOG2 PUSH5 0x6970667358 0x22 SLT KECCAK256 0xD1 SWAP11 PUSH23 0xA06C459B4BBD921BC395CA793804717005B7532538EA41 SWAP10 0xC5 LOG3 0xD7 RETURN OR PUSH5 0x736F6C6343 STOP ADDMOD BYTE STOP CALLER "
		},
		"gasEstimates": {
			"creation": {
				"codeDepositCost": "383200",
				"executionCost": "416",
				"totalCost": "383616"
			},
			"external": {
				"BuyTokens(uint256,uint256)": "infinite",
				"ListTokens(address,uint256,uint256)": "infinite",
				"getListCount()": "2418",
				"listings(uint256)": "infinite"
			}
		},
		"methodIdentifiers": {
			"BuyTokens(uint256,uint256)": "9b759f68",
			"ListTokens(address,uint256,uint256)": "b82d80c0",
			"getListCount()": "2ce37b10",
			"listings(uint256)": "de74e57b"
		}
	},
	"abi": [
		{
			"inputs": [
				{
					"internalType": "uint256",
					"name": "ListingID",
					"type": "uint256"
				},
				{
					"internalType": "uint256",
					"name": "TokenAmount",
					"type": "uint256"
				}
			],
			"name": "BuyTokens",
			"outputs": [],
			"stateMutability": "payable",
			"type": "function"
		},
		{
			"inputs": [
				{
					"internalType": "contract IERC20",
					"name": "token",
					"type": "address"
				},
				{
					"internalType": "uint256",
					"name": "totalAmount",
					"type": "uint256"
				},
				{
					"internalType": "uint256",
					"name": "pricePerToken",
					"type": "uint256"
				}
			],
			"name": "ListTokens",
			"outputs": [],
			"stateMutability": "payable",
			"type": "function"
		},
		{
			"inputs": [],
			"name": "getListCount",
			"outputs": [
				{
					"internalType": "uint256",
					"name": "",
					"type": "uint256"
				}
			],
			"stateMutability": "view",
			"type": "function"
		},
		{
			"inputs": [
				{
					"internalType": "uint256",
					"name": "",
					"type": "uint256"
				}
			],
			"name": "listings",
			"outputs": [
				{
					"internalType": "address",
					"name": "seller",
					"type": "address"
				},
				{
					"internalType": "contract IERC20",
					"name": "token",
					"type": "address"
				},
				{
					"internalType": "uint256",
					"name": "pricePerToken",
					"type": "uint256"
				},
				{
					"internalType": "uint256",
					"name": "remainingAmount",
					"type": "uint256"
				}
			],
			"stateMutability": "view",
			"type": "function"
		}
	]
}